{
  "address": "0xB2d8a2ce4A3a5B63CE60b0AE7593dD9A30eeFe77",
  "abi": [
    {
      "anonymous": false,
      "inputs": [
        {
          "indexed": true,
          "internalType": "address",
          "name": "previousOwner",
          "type": "address"
        },
        {
          "indexed": true,
          "internalType": "address",
          "name": "newOwner",
          "type": "address"
        }
      ],
      "name": "OwnershipTransferred",
      "type": "event"
    },
    {
      "anonymous": false,
      "inputs": [
        {
          "indexed": true,
          "internalType": "address",
          "name": "creator",
          "type": "address"
        },
        {
          "indexed": false,
          "internalType": "uint256",
          "name": "amount",
          "type": "uint256"
        },
        {
          "indexed": false,
          "internalType": "string",
          "name": "title",
          "type": "string"
        },
        {
          "indexed": false,
          "internalType": "string",
          "name": "guid",
          "type": "string"
        }
      ],
      "name": "PaymentLinkCreated",
      "type": "event"
    },
    {
      "anonymous": false,
      "inputs": [
        {
          "indexed": true,
          "internalType": "address",
          "name": "payer",
          "type": "address"
        },
        {
          "indexed": true,
          "internalType": "address",
          "name": "recipient",
          "type": "address"
        },
        {
          "indexed": false,
          "internalType": "uint256",
          "name": "amount",
          "type": "uint256"
        },
        {
          "indexed": false,
          "internalType": "uint256",
          "name": "fee",
          "type": "uint256"
        }
      ],
      "name": "PaymentMade",
      "type": "event"
    },
    {
      "inputs": [
        {
          "internalType": "uint256",
          "name": "amount",
          "type": "uint256"
        },
        {
          "internalType": "string",
          "name": "title",
          "type": "string"
        },
        {
          "internalType": "string",
          "name": "guid",
          "type": "string"
        }
      ],
      "name": "createPaymentLink",
      "outputs": [],
      "stateMutability": "nonpayable",
      "type": "function"
    },
    {
      "inputs": [],
      "name": "feePercentage",
      "outputs": [
        {
          "internalType": "uint256",
          "name": "",
          "type": "uint256"
        }
      ],
      "stateMutability": "view",
      "type": "function"
    },
    {
      "inputs": [
        {
          "internalType": "string",
          "name": "guid",
          "type": "string"
        }
      ],
      "name": "getPaymentDetails",
      "outputs": [
        {
          "internalType": "uint256",
          "name": "",
          "type": "uint256"
        },
        {
          "internalType": "string",
          "name": "",
          "type": "string"
        },
        {
          "internalType": "address",
          "name": "",
          "type": "address"
        }
      ],
      "stateMutability": "view",
      "type": "function"
    },
    {
      "inputs": [
        {
          "internalType": "string",
          "name": "guid",
          "type": "string"
        }
      ],
      "name": "makePayment",
      "outputs": [],
      "stateMutability": "payable",
      "type": "function"
    },
    {
      "inputs": [],
      "name": "owner",
      "outputs": [
        {
          "internalType": "address",
          "name": "",
          "type": "address"
        }
      ],
      "stateMutability": "view",
      "type": "function"
    },
    {
      "inputs": [
        {
          "internalType": "string",
          "name": "",
          "type": "string"
        }
      ],
      "name": "payments",
      "outputs": [
        {
          "internalType": "uint256",
          "name": "amount",
          "type": "uint256"
        },
        {
          "internalType": "string",
          "name": "title",
          "type": "string"
        },
        {
          "internalType": "string",
          "name": "guid",
          "type": "string"
        },
        {
          "internalType": "address",
          "name": "creator",
          "type": "address"
        }
      ],
      "stateMutability": "view",
      "type": "function"
    },
    {
      "inputs": [],
      "name": "renounceOwnership",
      "outputs": [],
      "stateMutability": "nonpayable",
      "type": "function"
    },
    {
      "inputs": [
        {
          "internalType": "uint256",
          "name": "newFeePercentage",
          "type": "uint256"
        }
      ],
      "name": "setFeePercentage",
      "outputs": [],
      "stateMutability": "nonpayable",
      "type": "function"
    },
    {
      "inputs": [
        {
          "internalType": "address",
          "name": "newOwner",
          "type": "address"
        }
      ],
      "name": "transferOwnership",
      "outputs": [],
      "stateMutability": "nonpayable",
      "type": "function"
    }
  ],
  "transactionHash": "0x30b085b10df0d22796d69b548f900a38f99642cb0efa87789989ad78f30aeaf1",
  "args": [],
  "numDeployments": 1,
  "solcInputHash": "d23148bdb0a3e164a93dcdd57d2d0ecf",
  "bytecode": "0x6080604052600560025534801561001557600080fd5b5061001f33610024565b610074565b600080546001600160a01b038381166001600160a01b0319831681178455604051919092169283917f8be0079c531659141344cd1fd0a4f28419497f9722a3daafe3b4186f6b6457e09190a35050565b610f47806100836000396000f3fe6080604052600436106100865760003560e01c8063a001ecdd11610059578063a001ecdd14610122578063ae06c1b714610146578063f2fde38b14610166578063f946871314610186578063f9e823e6146101b657600080fd5b8063139478321461008b578063715018a6146100c3578063840fee83146100da5780638da5cb5b146100fa575b600080fd5b34801561009757600080fd5b506100ab6100a6366004610b56565b6101c9565b6040516100ba93929190610be3565b60405180910390f35b3480156100cf57600080fd5b506100d86103a6565b005b3480156100e657600080fd5b506100d86100f5366004610c14565b6103ba565b34801561010657600080fd5b506000546040516001600160a01b0390911681526020016100ba565b34801561012e57600080fd5b5061013860025481565b6040519081526020016100ba565b34801561015257600080fd5b506100d8610161366004610c81565b61050e565b34801561017257600080fd5b506100d8610181366004610c9a565b61057b565b34801561019257600080fd5b506101a66101a1366004610b56565b6105f4565b6040516100ba9493929190610cca565b6100d86101c4366004610b56565b610745565b600060606000806001856040516101e09190610d0f565b90815260200160405180910390206040518060800160405290816000820154815260200160018201805461021390610d2b565b80601f016020809104026020016040519081016040528092919081815260200182805461023f90610d2b565b801561028c5780601f106102615761010080835404028352916020019161028c565b820191906000526020600020905b81548152906001019060200180831161026f57829003601f168201915b505050505081526020016002820180546102a590610d2b565b80601f01602080910402602001604051908101604052809291908181526020018280546102d190610d2b565b801561031e5780601f106102f35761010080835404028352916020019161031e565b820191906000526020600020905b81548152906001019060200180831161030157829003601f168201915b5050509183525050600391909101546001600160a01b031660209091015260408101515190915060000361038d5760405162461bcd60e51b815260206004820152601160248201527014185e5b595b9d081b9bdd08199bdd5b99607a1b60448201526064015b60405180910390fd5b8051602082015160609092015190969195509350915050565b6103ae610a09565b6103b86000610a63565b565b6001816040516103ca9190610d0f565b908152602001604051809103902060020180546103e690610d2b565b15905061042b5760405162461bcd60e51b81526020600482015260136024820152724755494420616c72656164792065786973747360681b6044820152606401610384565b6040518060800160405280848152602001838152602001828152602001336001600160a01b03168152506001826040516104659190610d0f565b908152604051602091819003820190208251815590820151600182019061048c9082610db4565b50604082015160028201906104a19082610db4565b5060609190910151600390910180546001600160a01b0319166001600160a01b0390921691909117905560405133907ff4078b911141cfc1f82c0f643d49e995c9dfc5397b93d2e3582dce2abeed263f9061050190869086908690610e74565b60405180910390a2505050565b610516610a09565b60648111156105765760405162461bcd60e51b815260206004820152602660248201527f4665652070657263656e746167652063616e6e6f74206265206d6f72652074686044820152650616e203130360d41b6064820152608401610384565b600255565b610583610a09565b6001600160a01b0381166105e85760405162461bcd60e51b815260206004820152602660248201527f4f776e61626c653a206e6577206f776e657220697320746865207a65726f206160448201526564647265737360d01b6064820152608401610384565b6105f181610a63565b50565b8051602081830181018051600180835293830192909401919091209290528154908201805491929161062590610d2b565b80601f016020809104026020016040519081016040528092919081815260200182805461065190610d2b565b801561069e5780601f106106735761010080835404028352916020019161069e565b820191906000526020600020905b81548152906001019060200180831161068157829003601f168201915b5050505050908060020180546106b390610d2b565b80601f01602080910402602001604051908101604052809291908181526020018280546106df90610d2b565b801561072c5780601f106107015761010080835404028352916020019161072c565b820191906000526020600020905b81548152906001019060200180831161070f57829003601f168201915b505050600390930154919250506001600160a01b031684565b60006001826040516107579190610d0f565b90815260200160405180910390206040518060800160405290816000820154815260200160018201805461078a90610d2b565b80601f01602080910402602001604051908101604052809291908181526020018280546107b690610d2b565b80156108035780601f106107d857610100808354040283529160200191610803565b820191906000526020600020905b8154815290600101906020018083116107e657829003601f168201915b5050505050815260200160028201805461081c90610d2b565b80601f016020809104026020016040519081016040528092919081815260200182805461084890610d2b565b80156108955780601f1061086a57610100808354040283529160200191610895565b820191906000526020600020905b81548152906001019060200180831161087857829003601f168201915b5050509183525050600391909101546001600160a01b03166020909101526040810151519091506000036108ff5760405162461bcd60e51b815260206004820152601160248201527014185e5b595b9d081b9bdd08199bdd5b99607a1b6044820152606401610384565b8051341461094f5760405162461bcd60e51b815260206004820152601860248201527f496e636f7272656374207061796d656e7420616d6f756e7400000000000000006044820152606401610384565b60006064600254346109619190610ebf565b61096b9190610edc565b905060006109798234610efe565b60608401516040519192506001600160a01b03169082156108fc029083906000818181858888f193505050501580156109b6573d6000803e3d6000fd5b50606083015160408051838152602081018590526001600160a01b039092169133917f1f004c54eef332ef6912dae8f1775c102da23bec79ccf602eaaa072938e96b67910160405180910390a350505050565b6000546001600160a01b031633146103b85760405162461bcd60e51b815260206004820181905260248201527f4f776e61626c653a2063616c6c6572206973206e6f7420746865206f776e65726044820152606401610384565b600080546001600160a01b038381166001600160a01b0319831681178455604051919092169283917f8be0079c531659141344cd1fd0a4f28419497f9722a3daafe3b4186f6b6457e09190a35050565b634e487b7160e01b600052604160045260246000fd5b600082601f830112610ada57600080fd5b813567ffffffffffffffff80821115610af557610af5610ab3565b604051601f8301601f19908116603f01168101908282118183101715610b1d57610b1d610ab3565b81604052838152866020858801011115610b3657600080fd5b836020870160208301376000602085830101528094505050505092915050565b600060208284031215610b6857600080fd5b813567ffffffffffffffff811115610b7f57600080fd5b610b8b84828501610ac9565b949350505050565b60005b83811015610bae578181015183820152602001610b96565b50506000910152565b60008151808452610bcf816020860160208601610b93565b601f01601f19169290920160200192915050565b838152606060208201526000610bfc6060830185610bb7565b905060018060a01b0383166040830152949350505050565b600080600060608486031215610c2957600080fd5b83359250602084013567ffffffffffffffff80821115610c4857600080fd5b610c5487838801610ac9565b93506040860135915080821115610c6a57600080fd5b50610c7786828701610ac9565b9150509250925092565b600060208284031215610c9357600080fd5b5035919050565b600060208284031215610cac57600080fd5b81356001600160a01b0381168114610cc357600080fd5b9392505050565b848152608060208201526000610ce36080830186610bb7565b8281036040840152610cf58186610bb7565b91505060018060a01b038316606083015295945050505050565b60008251610d21818460208701610b93565b9190910192915050565b600181811c90821680610d3f57607f821691505b602082108103610d5f57634e487b7160e01b600052602260045260246000fd5b50919050565b601f821115610daf57600081815260208120601f850160051c81016020861015610d8c5750805b601f850160051c820191505b81811015610dab57828155600101610d98565b5050505b505050565b815167ffffffffffffffff811115610dce57610dce610ab3565b610de281610ddc8454610d2b565b84610d65565b602080601f831160018114610e175760008415610dff5750858301515b600019600386901b1c1916600185901b178555610dab565b600085815260208120601f198616915b82811015610e4657888601518255948401946001909101908401610e27565b5085821015610e645787850151600019600388901b60f8161c191681555b5050505050600190811b01905550565b838152606060208201526000610e8d6060830185610bb7565b8281036040840152610e9f8185610bb7565b9695505050505050565b634e487b7160e01b600052601160045260246000fd5b8082028115828204841417610ed657610ed6610ea9565b92915050565b600082610ef957634e487b7160e01b600052601260045260246000fd5b500490565b81810381811115610ed657610ed6610ea956fea2646970667358221220d6567cd09177c9e19060518eba4673dde7e89839f292c9792b92aa6836cf93b464736f6c63430008110033",
  "devdoc": {
    "kind": "dev",
    "methods": {
      "owner()": {
        "details": "Returns the address of the current owner."
      },
      "renounceOwnership()": {
        "details": "Leaves the contract without owner. It will not be possible to call `onlyOwner` functions anymore. Can only be called by the current owner. NOTE: Renouncing ownership will leave the contract without an owner, thereby removing any functionality that is only available to the owner."
      },
      "transferOwnership(address)": {
        "details": "Transfers ownership of the contract to a new account (`newOwner`). Can only be called by the current owner."
      }
    },
    "version": 1
  },
  "userdoc": {
    "kind": "user",
    "methods": {},
    "version": 1
  },
  "storageLayout": {
    "storage": [
      {
        "astId": 7,
        "contract": "contracts/PaymentLink.sol:PaymentLink",
        "label": "_owner",
        "offset": 0,
        "slot": "0",
        "type": "t_address"
      },
      {
        "astId": 173,
        "contract": "contracts/PaymentLink.sol:PaymentLink",
        "label": "payments",
        "offset": 0,
        "slot": "1",
        "type": "t_mapping(t_string_memory_ptr,t_struct(Payment)148_storage)"
      },
      {
        "astId": 176,
        "contract": "contracts/PaymentLink.sol:PaymentLink",
        "label": "feePercentage",
        "offset": 0,
        "slot": "2",
        "type": "t_uint256"
      }
    ],
    "types": {
      "t_address": {
        "encoding": "inplace",
        "label": "address",
        "numberOfBytes": "20"
      },
      "t_mapping(t_string_memory_ptr,t_struct(Payment)148_storage)": {
        "encoding": "mapping",
        "key": "t_string_memory_ptr",
        "label": "mapping(string => struct PaymentLink.Payment)",
        "numberOfBytes": "32",
        "value": "t_struct(Payment)148_storage"
      },
      "t_string_memory_ptr": {
        "encoding": "bytes",
        "label": "string",
        "numberOfBytes": "32"
      },
      "t_string_storage": {
        "encoding": "bytes",
        "label": "string",
        "numberOfBytes": "32"
      },
      "t_struct(Payment)148_storage": {
        "encoding": "inplace",
        "label": "struct PaymentLink.Payment",
        "members": [
          {
            "astId": 141,
            "contract": "contracts/PaymentLink.sol:PaymentLink",
            "label": "amount",
            "offset": 0,
            "slot": "0",
            "type": "t_uint256"
          },
          {
            "astId": 143,
            "contract": "contracts/PaymentLink.sol:PaymentLink",
            "label": "title",
            "offset": 0,
            "slot": "1",
            "type": "t_string_storage"
          },
          {
            "astId": 145,
            "contract": "contracts/PaymentLink.sol:PaymentLink",
            "label": "guid",
            "offset": 0,
            "slot": "2",
            "type": "t_string_storage"
          },
          {
            "astId": 147,
            "contract": "contracts/PaymentLink.sol:PaymentLink",
            "label": "creator",
            "offset": 0,
            "slot": "3",
            "type": "t_address"
          }
        ],
        "numberOfBytes": "128"
      },
      "t_uint256": {
        "encoding": "inplace",
        "label": "uint256",
        "numberOfBytes": "32"
      }
    }
  }
}